{
  "contractName": "Faucet",
  "abi": [
    {
      "stateMutability": "payable",
      "type": "fallback"
    },
    {
      "stateMutability": "payable",
      "type": "receive"
    },
    {
      "inputs": [
        {
          "internalType": "uint256",
          "name": "withdraw_amount",
          "type": "uint256"
        }
      ],
      "name": "withdraw",
      "outputs": [],
      "stateMutability": "nonpayable",
      "type": "function"
    }
  ],
  "bytecode": "0x608060405234801561001057600080fd5b5060eb8061001f6000396000f3fe608060405260043610601f5760003560e01c80632e1a7d4d146027576025565b36602557005b005b348015603257600080fd5b50605c60048036036020811015604757600080fd5b8101908080359060200190929190505050605e565b005b612710811115606c57600080fd5b3373ffffffffffffffffffffffffffffffffffffffff166108fc829081150290604051600060405180830381858888f1935050505015801560b1573d6000803e3d6000fd5b505056fea26469706673582212209f021aa662ab1c1cc4b516e5324d2d00d02e7fd8f8e56be8899d4e206fb03e3b64736f6c634300060b0033",
  "immutableReferences": {},
  "source": "// SPDX-License-Identifier: GPL-3.0\r\npragma solidity ^0.6.0;\r\n\r\ncontract Faucet {\r\n\r\n    function withdraw(uint withdraw_amount) public {\r\n        require(withdraw_amount <= 10000);\r\n\r\n        msg.sender.transfer(withdraw_amount);\r\n    }\r\n\r\n    receive() external payable {}\r\n\r\n    fallback() external payable {}\r\n\r\n}",
  "sourcePath": "C:\\Users\\Dylan\\git\\MasteringEthereum\\contracts\\Faucet.sol",
  "compiler": {
    "name": "solc",
    "version": "0.6.11+commit.5ef660b1.Emscripten.clang"
  },
  "schemaVersion": "3.2.1",
  "updatedAt": "2020-07-19T22:54:14.149Z",
  "devdoc": {
    "kind": "dev",
    "methods": {},
    "version": 1
  },
  "userdoc": {
    "kind": "user",
    "methods": {},
    "version": 1
  }
}